{
  "_format": "hh-sol-artifact-1",
  "contractName": "MGPToken",
  "sourceName": "contracts/MGPToken.sol",
  "abi": [
    {
      "inputs": [],
      "stateMutability": "nonpayable",
      "type": "constructor"
    },
    {
      "anonymous": false,
      "inputs": [
        {
          "indexed": true,
          "internalType": "address",
          "name": "owner",
          "type": "address"
        },
        {
          "indexed": true,
          "internalType": "address",
          "name": "spender",
          "type": "address"
        },
        {
          "indexed": false,
          "internalType": "uint256",
          "name": "value",
          "type": "uint256"
        }
      ],
      "name": "Approval",
      "type": "event"
    },
    {
      "anonymous": false,
      "inputs": [
        {
          "indexed": true,
          "internalType": "address",
          "name": "previousOwner",
          "type": "address"
        },
        {
          "indexed": true,
          "internalType": "address",
          "name": "newOwner",
          "type": "address"
        }
      ],
      "name": "OwnershipTransferred",
      "type": "event"
    },
    {
      "anonymous": false,
      "inputs": [
        {
          "indexed": false,
          "internalType": "address",
          "name": "account",
          "type": "address"
        }
      ],
      "name": "Paused",
      "type": "event"
    },
    {
      "anonymous": false,
      "inputs": [
        {
          "indexed": true,
          "internalType": "address",
          "name": "user",
          "type": "address"
        },
        {
          "indexed": false,
          "internalType": "uint256",
          "name": "amount",
          "type": "uint256"
        }
      ],
      "name": "Staked",
      "type": "event"
    },
    {
      "anonymous": false,
      "inputs": [
        {
          "indexed": true,
          "internalType": "address",
          "name": "from",
          "type": "address"
        },
        {
          "indexed": false,
          "internalType": "uint256",
          "name": "amount",
          "type": "uint256"
        }
      ],
      "name": "TokensBurned",
      "type": "event"
    },
    {
      "anonymous": false,
      "inputs": [
        {
          "indexed": true,
          "internalType": "address",
          "name": "buyer",
          "type": "address"
        },
        {
          "indexed": false,
          "internalType": "uint256",
          "name": "amount",
          "type": "uint256"
        },
        {
          "indexed": false,
          "internalType": "uint256",
          "name": "cost",
          "type": "uint256"
        }
      ],
      "name": "TokensPurchased",
      "type": "event"
    },
    {
      "anonymous": false,
      "inputs": [
        {
          "indexed": true,
          "internalType": "address",
          "name": "from",
          "type": "address"
        },
        {
          "indexed": true,
          "internalType": "address",
          "name": "to",
          "type": "address"
        },
        {
          "indexed": false,
          "internalType": "uint256",
          "name": "value",
          "type": "uint256"
        }
      ],
      "name": "Transfer",
      "type": "event"
    },
    {
      "anonymous": false,
      "inputs": [
        {
          "indexed": false,
          "internalType": "address",
          "name": "account",
          "type": "address"
        }
      ],
      "name": "Unpaused",
      "type": "event"
    },
    {
      "anonymous": false,
      "inputs": [
        {
          "indexed": true,
          "internalType": "address",
          "name": "user",
          "type": "address"
        },
        {
          "indexed": false,
          "internalType": "uint256",
          "name": "amount",
          "type": "uint256"
        },
        {
          "indexed": false,
          "internalType": "uint256",
          "name": "reward",
          "type": "uint256"
        }
      ],
      "name": "Unstaked",
      "type": "event"
    },
    {
      "inputs": [],
      "name": "INITIAL_SUPPLY",
      "outputs": [
        {
          "internalType": "uint256",
          "name": "",
          "type": "uint256"
        }
      ],
      "stateMutability": "view",
      "type": "function"
    },
    {
      "inputs": [],
      "name": "MAX_SUPPLY",
      "outputs": [
        {
          "internalType": "uint256",
          "name": "",
          "type": "uint256"
        }
      ],
      "stateMutability": "view",
      "type": "function"
    },
    {
      "inputs": [],
      "name": "STAKING_PERIOD",
      "outputs": [
        {
          "internalType": "uint256",
          "name": "",
          "type": "uint256"
        }
      ],
      "stateMutability": "view",
      "type": "function"
    },
    {
      "inputs": [],
      "name": "STAKING_REWARD_RATE",
      "outputs": [
        {
          "internalType": "uint256",
          "name": "",
          "type": "uint256"
        }
      ],
      "stateMutability": "view",
      "type": "function"
    },
    {
      "inputs": [],
      "name": "TOKEN_PRICE",
      "outputs": [
        {
          "internalType": "uint256",
          "name": "",
          "type": "uint256"
        }
      ],
      "stateMutability": "view",
      "type": "function"
    },
    {
      "inputs": [
        {
          "internalType": "address",
          "name": "owner",
          "type": "address"
        },
        {
          "internalType": "address",
          "name": "spender",
          "type": "address"
        }
      ],
      "name": "allowance",
      "outputs": [
        {
          "internalType": "uint256",
          "name": "",
          "type": "uint256"
        }
      ],
      "stateMutability": "view",
      "type": "function"
    },
    {
      "inputs": [
        {
          "internalType": "address",
          "name": "spender",
          "type": "address"
        },
        {
          "internalType": "uint256",
          "name": "amount",
          "type": "uint256"
        }
      ],
      "name": "approve",
      "outputs": [
        {
          "internalType": "bool",
          "name": "",
          "type": "bool"
        }
      ],
      "stateMutability": "nonpayable",
      "type": "function"
    },
    {
      "inputs": [
        {
          "internalType": "address",
          "name": "account",
          "type": "address"
        }
      ],
      "name": "balanceOf",
      "outputs": [
        {
          "internalType": "uint256",
          "name": "",
          "type": "uint256"
        }
      ],
      "stateMutability": "view",
      "type": "function"
    },
    {
      "inputs": [
        {
          "internalType": "uint256",
          "name": "amount",
          "type": "uint256"
        }
      ],
      "name": "burnTokens",
      "outputs": [],
      "stateMutability": "nonpayable",
      "type": "function"
    },
    {
      "inputs": [
        {
          "internalType": "address",
          "name": "user",
          "type": "address"
        }
      ],
      "name": "calculateReward",
      "outputs": [
        {
          "internalType": "uint256",
          "name": "",
          "type": "uint256"
        }
      ],
      "stateMutability": "view",
      "type": "function"
    },
    {
      "inputs": [],
      "name": "claimReward",
      "outputs": [],
      "stateMutability": "nonpayable",
      "type": "function"
    },
    {
      "inputs": [],
      "name": "decimals",
      "outputs": [
        {
          "internalType": "uint8",
          "name": "",
          "type": "uint8"
        }
      ],
      "stateMutability": "view",
      "type": "function"
    },
    {
      "inputs": [
        {
          "internalType": "address",
          "name": "spender",
          "type": "address"
        },
        {
          "internalType": "uint256",
          "name": "subtractedValue",
          "type": "uint256"
        }
      ],
      "name": "decreaseAllowance",
      "outputs": [
        {
          "internalType": "bool",
          "name": "",
          "type": "bool"
        }
      ],
      "stateMutability": "nonpayable",
      "type": "function"
    },
    {
      "inputs": [
        {
          "internalType": "address",
          "name": "spender",
          "type": "address"
        },
        {
          "internalType": "uint256",
          "name": "addedValue",
          "type": "uint256"
        }
      ],
      "name": "increaseAllowance",
      "outputs": [
        {
          "internalType": "bool",
          "name": "",
          "type": "bool"
        }
      ],
      "stateMutability": "nonpayable",
      "type": "function"
    },
    {
      "inputs": [],
      "name": "name",
      "outputs": [
        {
          "internalType": "string",
          "name": "",
          "type": "string"
        }
      ],
      "stateMutability": "view",
      "type": "function"
    },
    {
      "inputs": [],
      "name": "owner",
      "outputs": [
        {
          "internalType": "address",
          "name": "",
          "type": "address"
        }
      ],
      "stateMutability": "view",
      "type": "function"
    },
    {
      "inputs": [],
      "name": "pause",
      "outputs": [],
      "stateMutability": "nonpayable",
      "type": "function"
    },
    {
      "inputs": [],
      "name": "paused",
      "outputs": [
        {
          "internalType": "bool",
          "name": "",
          "type": "bool"
        }
      ],
      "stateMutability": "view",
      "type": "function"
    },
    {
      "inputs": [],
      "name": "purchaseTokens",
      "outputs": [],
      "stateMutability": "payable",
      "type": "function"
    },
    {
      "inputs": [],
      "name": "renounceOwnership",
      "outputs": [],
      "stateMutability": "nonpayable",
      "type": "function"
    },
    {
      "inputs": [
        {
          "internalType": "uint256",
          "name": "amount",
          "type": "uint256"
        }
      ],
      "name": "stake",
      "outputs": [],
      "stateMutability": "nonpayable",
      "type": "function"
    },
    {
      "inputs": [
        {
          "internalType": "address",
          "name": "",
          "type": "address"
        }
      ],
      "name": "stakingBalance",
      "outputs": [
        {
          "internalType": "uint256",
          "name": "",
          "type": "uint256"
        }
      ],
      "stateMutability": "view",
      "type": "function"
    },
    {
      "inputs": [
        {
          "internalType": "address",
          "name": "",
          "type": "address"
        }
      ],
      "name": "stakingTimestamp",
      "outputs": [
        {
          "internalType": "uint256",
          "name": "",
          "type": "uint256"
        }
      ],
      "stateMutability": "view",
      "type": "function"
    },
    {
      "inputs": [],
      "name": "symbol",
      "outputs": [
        {
          "internalType": "string",
          "name": "",
          "type": "string"
        }
      ],
      "stateMutability": "view",
      "type": "function"
    },
    {
      "inputs": [],
      "name": "totalSupply",
      "outputs": [
        {
          "internalType": "uint256",
          "name": "",
          "type": "uint256"
        }
      ],
      "stateMutability": "view",
      "type": "function"
    },
    {
      "inputs": [
        {
          "internalType": "address",
          "name": "to",
          "type": "address"
        },
        {
          "internalType": "uint256",
          "name": "amount",
          "type": "uint256"
        }
      ],
      "name": "transfer",
      "outputs": [
        {
          "internalType": "bool",
          "name": "",
          "type": "bool"
        }
      ],
      "stateMutability": "nonpayable",
      "type": "function"
    },
    {
      "inputs": [
        {
          "internalType": "address",
          "name": "from",
          "type": "address"
        },
        {
          "internalType": "address",
          "name": "to",
          "type": "address"
        },
        {
          "internalType": "uint256",
          "name": "amount",
          "type": "uint256"
        }
      ],
      "name": "transferFrom",
      "outputs": [
        {
          "internalType": "bool",
          "name": "",
          "type": "bool"
        }
      ],
      "stateMutability": "nonpayable",
      "type": "function"
    },
    {
      "inputs": [
        {
          "internalType": "address",
          "name": "newOwner",
          "type": "address"
        }
      ],
      "name": "transferOwnership",
      "outputs": [],
      "stateMutability": "nonpayable",
      "type": "function"
    },
    {
      "inputs": [],
      "name": "unpause",
      "outputs": [],
      "stateMutability": "nonpayable",
      "type": "function"
    },
    {
      "inputs": [],
      "name": "unstake",
      "outputs": [],
      "stateMutability": "nonpayable",
      "type": "function"
    },
    {
      "inputs": [],
      "name": "withdrawMatic",
      "outputs": [],
      "stateMutability": "nonpayable",
      "type": "function"
    },
    {
      "stateMutability": "payable",
      "type": "receive"
    }
  ],
  "bytecode": "0x608060405234801561001057600080fd5b506040518060400160405280601481526020017f4d722047616d6520506c6179657220546f6b656e0000000000000000000000008152506040518060400160405280600381526020017f4d47500000000000000000000000000000000000000000000000000000000000815250816003908161008c919061057f565b50806004908161009c919061057f565b5050506100bb6100b06100f560201b60201c565b6100fd60201b60201c565b6000600560146101000a81548160ff0219169083151502179055506100f03369d3c21bcecceda10000006101c360201b60201c565b61075b565b600033905090565b6000600560009054906101000a900473ffffffffffffffffffffffffffffffffffffffff16905081600560006101000a81548173ffffffffffffffffffffffffffffffffffffffff021916908373ffffffffffffffffffffffffffffffffffffffff1602179055508173ffffffffffffffffffffffffffffffffffffffff168173ffffffffffffffffffffffffffffffffffffffff167f8be0079c531659141344cd1fd0a4f28419497f9722a3daafe3b4186f6b6457e060405160405180910390a35050565b600073ffffffffffffffffffffffffffffffffffffffff168273ffffffffffffffffffffffffffffffffffffffff1603610232576040517f08c379a0000000000000000000000000000000000000000000000000000000008152600401610229906106ae565b60405180910390fd5b6102446000838361032560201b60201c565b806002600082825461025691906106fd565b92505081905550806000808473ffffffffffffffffffffffffffffffffffffffff1673ffffffffffffffffffffffffffffffffffffffff168152602001908152602001600020600082825401925050819055508173ffffffffffffffffffffffffffffffffffffffff16600073ffffffffffffffffffffffffffffffffffffffff167fddf252ad1be2c89b69c2b068fc378daa952ba7f163c4a11628f55a4df523b3ef836040516103079190610740565b60405180910390a36103216000838361032a60201b60201c565b5050565b505050565b505050565b600081519050919050565b7f4e487b7100000000000000000000000000000000000000000000000000000000600052604160045260246000fd5b7f4e487b7100000000000000000000000000000000000000000000000000000000600052602260045260246000fd5b600060028204905060018216806103b057607f821691505b6020821081036103c3576103c2610369565b5b50919050565b60008190508160005260206000209050919050565b60006020601f8301049050919050565b600082821b905092915050565b60006008830261042b7fffffffffffffffffffffffffffffffffffffffffffffffffffffffffffffffff826103ee565b61043586836103ee565b95508019841693508086168417925050509392505050565b6000819050919050565b6000819050919050565b600061047c6104776104728461044d565b610457565b61044d565b9050919050565b6000819050919050565b61049683610461565b6104aa6104a282610483565b8484546103fb565b825550505050565b600090565b6104bf6104b2565b6104ca81848461048d565b505050565b5b818110156104ee576104e36000826104b7565b6001810190506104d0565b5050565b601f82111561053357610504816103c9565b61050d846103de565b8101602085101561051c578190505b610530610528856103de565b8301826104cf565b50505b505050565b600082821c905092915050565b600061055660001984600802610538565b1980831691505092915050565b600061056f8383610545565b9150826002028217905092915050565b6105888261032f565b67ffffffffffffffff8111156105a1576105a061033a565b5b6105ab8254610398565b6105b68282856104f2565b600060209050601f8311600181146105e957600084156105d7578287015190505b6105e18582610563565b865550610649565b601f1984166105f7866103c9565b60005b8281101561061f578489015182556001820191506020850194506020810190506105fa565b8683101561063c5784890151610638601f891682610545565b8355505b6001600288020188555050505b505050505050565b600082825260208201905092915050565b7f45524332303a206d696e7420746f20746865207a65726f206164647265737300600082015250565b6000610698601f83610651565b91506106a382610662565b602082019050919050565b600060208201905081810360008301526106c78161068b565b9050919050565b7f4e487b7100000000000000000000000000000000000000000000000000000000600052601160045260246000fd5b60006107088261044d565b91506107138361044d565b925082820190508082111561072b5761072a6106ce565b5b92915050565b61073a8161044d565b82525050565b60006020820190506107556000830184610731565b92915050565b6130428061076a6000396000f3fe6080604052600436106101dc5760003560e01c80636d1b229d11610102578063a457c2d711610095578063d2d8cb6711610064578063d2d8cb671461066c578063d82e396214610697578063dd62ed3e146106d4578063f2fde38b14610711576101eb565b8063a457c2d7146105b2578063a694fc3a146105ef578063a9059cbb14610618578063b88a802f14610655576101eb565b80638456cb59116100d15780638456cb59146105085780638da5cb5b1461051f5780638f0794fe1461054a57806395d89b4114610587576101eb565b80636d1b229d1461047457806370a082311461049d578063715018a6146104da578063810074c6146104f1576101eb565b80632ff2e9dc1161017a578063395093511161014957806339509351146103b85780633f4ba83a146103f557806345bc78ab1461040c5780635c975abb14610449576101eb565b80632ff2e9dc1461032d578063313ce567146103585780633290ce291461038357806332cb6b0c1461038d576101eb565b80630f1a2905116101b65780630f1a29051461028357806318160ddd146102ae57806323b872dd146102d95780632def662014610316576101eb565b80630104db1b146101f057806306fdde031461021b578063095ea7b314610246576101eb565b366101eb576101e961073a565b005b600080fd5b3480156101fc57600080fd5b5061020561086d565b6040516102129190611fb4565b60405180910390f35b34801561022757600080fd5b50610230610874565b60405161023d919061205f565b60405180910390f35b34801561025257600080fd5b5061026d60048036038101906102689190612110565b610906565b60405161027a919061216b565b60405180910390f35b34801561028f57600080fd5b50610298610929565b6040516102a59190611fb4565b60405180910390f35b3480156102ba57600080fd5b506102c361092e565b6040516102d09190611fb4565b60405180910390f35b3480156102e557600080fd5b5061030060048036038101906102fb9190612186565b610938565b60405161030d919061216b565b60405180910390f35b34801561032257600080fd5b5061032b610967565b005b34801561033957600080fd5b50610342610b50565b60405161034f9190611fb4565b60405180910390f35b34801561036457600080fd5b5061036d610b5e565b60405161037a91906121f5565b60405180910390f35b61038b61073a565b005b34801561039957600080fd5b506103a2610b67565b6040516103af9190611fb4565b60405180910390f35b3480156103c457600080fd5b506103df60048036038101906103da9190612110565b610b76565b6040516103ec919061216b565b60405180910390f35b34801561040157600080fd5b5061040a610bad565b005b34801561041857600080fd5b50610433600480360381019061042e9190612210565b610bbf565b6040516104409190611fb4565b60405180910390f35b34801561045557600080fd5b5061045e610bd7565b60405161046b919061216b565b60405180910390f35b34801561048057600080fd5b5061049b6004803603810190610496919061223d565b610bee565b005b3480156104a957600080fd5b506104c460048036038101906104bf9190612210565b610cdf565b6040516104d19190611fb4565b60405180910390f35b3480156104e657600080fd5b506104ef610d27565b005b3480156104fd57600080fd5b50610506610d3b565b005b34801561051457600080fd5b5061051d610e42565b005b34801561052b57600080fd5b50610534610e54565b6040516105419190612279565b60405180910390f35b34801561055657600080fd5b50610571600480360381019061056c9190612210565b610e7e565b60405161057e9190611fb4565b60405180910390f35b34801561059357600080fd5b5061059c610e96565b6040516105a9919061205f565b60405180910390f35b3480156105be57600080fd5b506105d960048036038101906105d49190612110565b610f28565b6040516105e6919061216b565b60405180910390f35b3480156105fb57600080fd5b506106166004803603810190610611919061223d565b610f9f565b005b34801561062457600080fd5b5061063f600480360381019061063a9190612110565b61117c565b60405161064c919061216b565b60405180910390f35b34801561066157600080fd5b5061066a61119f565b005b34801561067857600080fd5b5061068161132a565b60405161068e9190611fb4565b60405180910390f35b3480156106a357600080fd5b506106be60048036038101906106b99190612210565b611336565b6040516106cb9190611fb4565b60405180910390f35b3480156106e057600080fd5b506106fb60048036038101906106f69190612294565b6113f4565b6040516107089190611fb4565b60405180910390f35b34801561071d57600080fd5b5061073860048036038101906107339190612210565b61147b565b005b6107426114fe565b60003411610785576040517f08c379a000000000000000000000000000000000000000000000000000000000815260040161077c90612346565b60405180910390fd5b600067016345785d8a0000670de0b6b3a7640000346107a49190612395565b6107ae9190612406565b90506a084595161401484a000000816107c561092e565b6107cf9190612437565b1115610810576040517f08c379a0000000000000000000000000000000000000000000000000000000008152600401610807906124b7565b60405180910390fd5b61081a3382611548565b3373ffffffffffffffffffffffffffffffffffffffff167f8fafebcaf9d154343dad25669bfa277f4fbacd7ac6b0c4fed522580e040a0f3382346040516108629291906124d7565b60405180910390a250565b62093a8081565b6060600380546108839061252f565b80601f01602080910402602001604051908101604052809291908181526020018280546108af9061252f565b80156108fc5780601f106108d1576101008083540402835291602001916108fc565b820191906000526020600020905b8154815290600101906020018083116108df57829003601f168201915b5050505050905090565b60008061091161169e565b905061091e8185856116a6565b600191505092915050565b600581565b6000600254905090565b60008061094361169e565b905061095085828561186f565b61095b8585856118fb565b60019150509392505050565b61096f6114fe565b6000600660003373ffffffffffffffffffffffffffffffffffffffff1673ffffffffffffffffffffffffffffffffffffffff16815260200190815260200160002054116109f1576040517f08c379a00000000000000000000000000000000000000000000000000000000081526004016109e8906125ac565b60405180910390fd5b60006109fc33611336565b90506000600660003373ffffffffffffffffffffffffffffffffffffffff1673ffffffffffffffffffffffffffffffffffffffff1681526020019081526020016000205490506a084595161401484a00000082610a5761092e565b610a619190612437565b1115610aa2576040517f08c379a0000000000000000000000000000000000000000000000000000000008152600401610a99906124b7565b60405180910390fd5b6000600660003373ffffffffffffffffffffffffffffffffffffffff1673ffffffffffffffffffffffffffffffffffffffff16815260200190815260200160002081905550610af13383611548565b610afc3033836118fb565b3373ffffffffffffffffffffffffffffffffffffffff167f7fc4727e062e336010f2c282598ef5f14facb3de68cf8195c2f23e1454b2b74e8284604051610b449291906124d7565b60405180910390a25050565b69d3c21bcecceda100000081565b60006012905090565b6a084595161401484a00000081565b600080610b8161169e565b9050610ba2818585610b9385896113f4565b610b9d9190612437565b6116a6565b600191505092915050565b610bb5611b71565b610bbd611bef565b565b60066020528060005260406000206000915090505481565b6000600560149054906101000a900460ff16905090565b610bf66114fe565b60008111610c39576040517f08c379a0000000000000000000000000000000000000000000000000000000008152600401610c3090612618565b60405180910390fd5b80610c4333610cdf565b1015610c84576040517f08c379a0000000000000000000000000000000000000000000000000000000008152600401610c7b90612684565b60405180910390fd5b610c8e3382611c52565b3373ffffffffffffffffffffffffffffffffffffffff167ffd38818f5291bf0bb3a2a48aadc06ba8757865d1dabd804585338aab3009dcb682604051610cd49190611fb4565b60405180910390a250565b60008060008373ffffffffffffffffffffffffffffffffffffffff1673ffffffffffffffffffffffffffffffffffffffff168152602001908152602001600020549050919050565b610d2f611b71565b610d396000611e1f565b565b610d43611b71565b600047905060008111610d8b576040517f08c379a0000000000000000000000000000000000000000000000000000000008152600401610d82906126f0565b60405180910390fd5b6000610d95610e54565b73ffffffffffffffffffffffffffffffffffffffff1682604051610db890612741565b60006040518083038185875af1925050503d8060008114610df5576040519150601f19603f3d011682016040523d82523d6000602084013e610dfa565b606091505b5050905080610e3e576040517f08c379a0000000000000000000000000000000000000000000000000000000008152600401610e35906127a2565b60405180910390fd5b5050565b610e4a611b71565b610e52611ee5565b565b6000600560009054906101000a900473ffffffffffffffffffffffffffffffffffffffff16905090565b60076020528060005260406000206000915090505481565b606060048054610ea59061252f565b80601f0160208091040260200160405190810160405280929190818152602001828054610ed19061252f565b8015610f1e5780601f10610ef357610100808354040283529160200191610f1e565b820191906000526020600020905b815481529060010190602001808311610f0157829003601f168201915b5050505050905090565b600080610f3361169e565b90506000610f4182866113f4565b905083811015610f86576040517f08c379a0000000000000000000000000000000000000000000000000000000008152600401610f7d90612834565b60405180910390fd5b610f9382868684036116a6565b60019250505092915050565b610fa76114fe565b60008111610fea576040517f08c379a0000000000000000000000000000000000000000000000000000000008152600401610fe1906128a0565b60405180910390fd5b80610ff433610cdf565b1015611035576040517f08c379a000000000000000000000000000000000000000000000000000000000815260040161102c90612684565b60405180910390fd5b6110403330836118fb565b6000600660003373ffffffffffffffffffffffffffffffffffffffff1673ffffffffffffffffffffffffffffffffffffffff1681526020019081526020016000205411156110915761109061119f565b5b80600660003373ffffffffffffffffffffffffffffffffffffffff1673ffffffffffffffffffffffffffffffffffffffff16815260200190815260200160002060008282546110e09190612437565b9250508190555042600760003373ffffffffffffffffffffffffffffffffffffffff1673ffffffffffffffffffffffffffffffffffffffff168152602001908152602001600020819055503373ffffffffffffffffffffffffffffffffffffffff167f9e71bc8eea02a63969f509818f2dafb9254532904319f9dbda79b67bd34a5f3d826040516111719190611fb4565b60405180910390a250565b60008061118761169e565b90506111948185856118fb565b600191505092915050565b6111a76114fe565b6000600660003373ffffffffffffffffffffffffffffffffffffffff1673ffffffffffffffffffffffffffffffffffffffff1681526020019081526020016000205411611229576040517f08c379a0000000000000000000000000000000000000000000000000000000008152600401611220906125ac565b60405180910390fd5b600061123433611336565b905060008111611279576040517f08c379a00000000000000000000000000000000000000000000000000000000081526004016112709061290c565b60405180910390fd5b6a084595161401484a0000008161128e61092e565b6112989190612437565b11156112d9576040517f08c379a00000000000000000000000000000000000000000000000000000000081526004016112d0906124b7565b60405180910390fd5b42600760003373ffffffffffffffffffffffffffffffffffffffff1673ffffffffffffffffffffffffffffffffffffffff168152602001908152602001600020819055506113273382611548565b50565b67016345785d8a000081565b600080600760008473ffffffffffffffffffffffffffffffffffffffff1673ffffffffffffffffffffffffffffffffffffffff1681526020019081526020016000205442611384919061292c565b905063bbf81e00816005600660008773ffffffffffffffffffffffffffffffffffffffff1673ffffffffffffffffffffffffffffffffffffffff168152602001908152602001600020546113d89190612395565b6113e29190612395565b6113ec9190612406565b915050919050565b6000600160008473ffffffffffffffffffffffffffffffffffffffff1673ffffffffffffffffffffffffffffffffffffffff16815260200190815260200160002060008373ffffffffffffffffffffffffffffffffffffffff1673ffffffffffffffffffffffffffffffffffffffff16815260200190815260200160002054905092915050565b611483611b71565b600073ffffffffffffffffffffffffffffffffffffffff168173ffffffffffffffffffffffffffffffffffffffff16036114f2576040517f08c379a00000000000000000000000000000000000000000000000000000000081526004016114e9906129d2565b60405180910390fd5b6114fb81611e1f565b50565b611506610bd7565b15611546576040517f08c379a000000000000000000000000000000000000000000000000000000000815260040161153d90612a3e565b60405180910390fd5b565b600073ffffffffffffffffffffffffffffffffffffffff168273ffffffffffffffffffffffffffffffffffffffff16036115b7576040517f08c379a00000000000000000000000000000000000000000000000000000000081526004016115ae90612aaa565b60405180910390fd5b6115c360008383611f48565b80600260008282546115d59190612437565b92505081905550806000808473ffffffffffffffffffffffffffffffffffffffff1673ffffffffffffffffffffffffffffffffffffffff168152602001908152602001600020600082825401925050819055508173ffffffffffffffffffffffffffffffffffffffff16600073ffffffffffffffffffffffffffffffffffffffff167fddf252ad1be2c89b69c2b068fc378daa952ba7f163c4a11628f55a4df523b3ef836040516116869190611fb4565b60405180910390a361169a60008383611f4d565b5050565b600033905090565b600073ffffffffffffffffffffffffffffffffffffffff168373ffffffffffffffffffffffffffffffffffffffff1603611715576040517f08c379a000000000000000000000000000000000000000000000000000000000815260040161170c90612b3c565b60405180910390fd5b600073ffffffffffffffffffffffffffffffffffffffff168273ffffffffffffffffffffffffffffffffffffffff1603611784576040517f08c379a000000000000000000000000000000000000000000000000000000000815260040161177b90612bce565b60405180910390fd5b80600160008573ffffffffffffffffffffffffffffffffffffffff1673ffffffffffffffffffffffffffffffffffffffff16815260200190815260200160002060008473ffffffffffffffffffffffffffffffffffffffff1673ffffffffffffffffffffffffffffffffffffffff168152602001908152602001600020819055508173ffffffffffffffffffffffffffffffffffffffff168373ffffffffffffffffffffffffffffffffffffffff167f8c5be1e5ebec7d5bd14f71427d1e84f3dd0314c0f7b2291e5b200ac8c7c3b925836040516118629190611fb4565b60405180910390a3505050565b600061187b84846113f4565b90507fffffffffffffffffffffffffffffffffffffffffffffffffffffffffffffffff81146118f557818110156118e7576040517f08c379a00000000000000000000000000000000000000000000000000000000081526004016118de90612c3a565b60405180910390fd5b6118f484848484036116a6565b5b50505050565b600073ffffffffffffffffffffffffffffffffffffffff168373ffffffffffffffffffffffffffffffffffffffff160361196a576040517f08c379a000000000000000000000000000000000000000000000000000000000815260040161196190612ccc565b60405180910390fd5b600073ffffffffffffffffffffffffffffffffffffffff168273ffffffffffffffffffffffffffffffffffffffff16036119d9576040517f08c379a00000000000000000000000000000000000000000000000000000000081526004016119d090612d5e565b60405180910390fd5b6119e4838383611f48565b60008060008573ffffffffffffffffffffffffffffffffffffffff1673ffffffffffffffffffffffffffffffffffffffff16815260200190815260200160002054905081811015611a6a576040517f08c379a0000000000000000000000000000000000000000000000000000000008152600401611a6190612df0565b60405180910390fd5b8181036000808673ffffffffffffffffffffffffffffffffffffffff1673ffffffffffffffffffffffffffffffffffffffff16815260200190815260200160002081905550816000808573ffffffffffffffffffffffffffffffffffffffff1673ffffffffffffffffffffffffffffffffffffffff168152602001908152602001600020600082825401925050819055508273ffffffffffffffffffffffffffffffffffffffff168473ffffffffffffffffffffffffffffffffffffffff167fddf252ad1be2c89b69c2b068fc378daa952ba7f163c4a11628f55a4df523b3ef84604051611b589190611fb4565b60405180910390a3611b6b848484611f4d565b50505050565b611b7961169e565b73ffffffffffffffffffffffffffffffffffffffff16611b97610e54565b73ffffffffffffffffffffffffffffffffffffffff1614611bed576040517f08c379a0000000000000000000000000000000000000000000000000000000008152600401611be490612e5c565b60405180910390fd5b565b611bf7611f52565b6000600560146101000a81548160ff0219169083151502179055507f5db9ee0a495bf2e6ff9c91a7834c1ba4fdd244a5e8aa4e537bd38aeae4b073aa611c3b61169e565b604051611c489190612279565b60405180910390a1565b600073ffffffffffffffffffffffffffffffffffffffff168273ffffffffffffffffffffffffffffffffffffffff1603611cc1576040517f08c379a0000000000000000000000000000000000000000000000000000000008152600401611cb890612eee565b60405180910390fd5b611ccd82600083611f48565b60008060008473ffffffffffffffffffffffffffffffffffffffff1673ffffffffffffffffffffffffffffffffffffffff16815260200190815260200160002054905081811015611d53576040517f08c379a0000000000000000000000000000000000000000000000000000000008152600401611d4a90612f80565b60405180910390fd5b8181036000808573ffffffffffffffffffffffffffffffffffffffff1673ffffffffffffffffffffffffffffffffffffffff1681526020019081526020016000208190555081600260008282540392505081905550600073ffffffffffffffffffffffffffffffffffffffff168373ffffffffffffffffffffffffffffffffffffffff167fddf252ad1be2c89b69c2b068fc378daa952ba7f163c4a11628f55a4df523b3ef84604051611e069190611fb4565b60405180910390a3611e1a83600084611f4d565b505050565b6000600560009054906101000a900473ffffffffffffffffffffffffffffffffffffffff16905081600560006101000a81548173ffffffffffffffffffffffffffffffffffffffff021916908373ffffffffffffffffffffffffffffffffffffffff1602179055508173ffffffffffffffffffffffffffffffffffffffff168173ffffffffffffffffffffffffffffffffffffffff167f8be0079c531659141344cd1fd0a4f28419497f9722a3daafe3b4186f6b6457e060405160405180910390a35050565b611eed6114fe565b6001600560146101000a81548160ff0219169083151502179055507f62e78cea01bee320cd4e420270b5ea74000d11b0c9f74754ebdbfc544b05a258611f3161169e565b604051611f3e9190612279565b60405180910390a1565b505050565b505050565b611f5a610bd7565b611f99576040517f08c379a0000000000000000000000000000000000000000000000000000000008152600401611f9090612fec565b60405180910390fd5b565b6000819050919050565b611fae81611f9b565b82525050565b6000602082019050611fc96000830184611fa5565b92915050565b600081519050919050565b600082825260208201905092915050565b60005b83811015612009578082015181840152602081019050611fee565b60008484015250505050565b6000601f19601f8301169050919050565b600061203182611fcf565b61203b8185611fda565b935061204b818560208601611feb565b61205481612015565b840191505092915050565b600060208201905081810360008301526120798184612026565b905092915050565b600080fd5b600073ffffffffffffffffffffffffffffffffffffffff82169050919050565b60006120b182612086565b9050919050565b6120c1816120a6565b81146120cc57600080fd5b50565b6000813590506120de816120b8565b92915050565b6120ed81611f9b565b81146120f857600080fd5b50565b60008135905061210a816120e4565b92915050565b6000806040838503121561212757612126612081565b5b6000612135858286016120cf565b9250506020612146858286016120fb565b9150509250929050565b60008115159050919050565b61216581612150565b82525050565b6000602082019050612180600083018461215c565b92915050565b60008060006060848603121561219f5761219e612081565b5b60006121ad868287016120cf565b93505060206121be868287016120cf565b92505060406121cf868287016120fb565b9150509250925092565b600060ff82169050919050565b6121ef816121d9565b82525050565b600060208201905061220a60008301846121e6565b92915050565b60006020828403121561222657612225612081565b5b6000612234848285016120cf565b91505092915050565b60006020828403121561225357612252612081565b5b6000612261848285016120fb565b91505092915050565b612273816120a6565b82525050565b600060208201905061228e600083018461226a565b92915050565b600080604083850312156122ab576122aa612081565b5b60006122b9858286016120cf565b92505060206122ca858286016120cf565b9150509250929050565b7f4d7573742073656e64204d4154494320746f20707572636861736520746f6b6560008201527f6e73000000000000000000000000000000000000000000000000000000000000602082015250565b6000612330602283611fda565b915061233b826122d4565b604082019050919050565b6000602082019050818103600083015261235f81612323565b9050919050565b7f4e487b7100000000000000000000000000000000000000000000000000000000600052601160045260246000fd5b60006123a082611f9b565b91506123ab83611f9b565b92508282026123b981611f9b565b915082820484148315176123d0576123cf612366565b5b5092915050565b7f4e487b7100000000000000000000000000000000000000000000000000000000600052601260045260246000fd5b600061241182611f9b565b915061241c83611f9b565b92508261242c5761242b6123d7565b5b828204905092915050565b600061244282611f9b565b915061244d83611f9b565b925082820190508082111561246557612464612366565b5b92915050565b7f576f756c6420657863656564206d617820737570706c79000000000000000000600082015250565b60006124a1601783611fda565b91506124ac8261246b565b602082019050919050565b600060208201905081810360008301526124d081612494565b9050919050565b60006040820190506124ec6000830185611fa5565b6124f96020830184611fa5565b9392505050565b7f4e487b7100000000000000000000000000000000000000000000000000000000600052602260045260246000fd5b6000600282049050600182168061254757607f821691505b60208210810361255a57612559612500565b5b50919050565b7f4e6f20746f6b656e73207374616b656400000000000000000000000000000000600082015250565b6000612596601083611fda565b91506125a182612560565b602082019050919050565b600060208201905081810360008301526125c581612589565b9050919050565b7f416d6f756e74206d7573742062652067726561746572207468616e2030000000600082015250565b6000612602601d83611fda565b915061260d826125cc565b602082019050919050565b60006020820190508181036000830152612631816125f5565b9050919050565b7f496e73756666696369656e742062616c616e6365000000000000000000000000600082015250565b600061266e601483611fda565b915061267982612638565b602082019050919050565b6000602082019050818103600083015261269d81612661565b9050919050565b7f4e6f204d4154494320746f207769746864726177000000000000000000000000600082015250565b60006126da601483611fda565b91506126e5826126a4565b602082019050919050565b60006020820190508181036000830152612709816126cd565b9050919050565b600081905092915050565b50565b600061272b600083612710565b91506127368261271b565b600082019050919050565b600061274c8261271e565b9150819050919050565b7f5472616e73666572206661696c65640000000000000000000000000000000000600082015250565b600061278c600f83611fda565b915061279782612756565b602082019050919050565b600060208201905081810360008301526127bb8161277f565b9050919050565b7f45524332303a2064656372656173656420616c6c6f77616e63652062656c6f7760008201527f207a65726f000000000000000000000000000000000000000000000000000000602082015250565b600061281e602583611fda565b9150612829826127c2565b604082019050919050565b6000602082019050818103600083015261284d81612811565b9050919050565b7f43616e6e6f74207374616b65203020746f6b656e730000000000000000000000600082015250565b600061288a601583611fda565b915061289582612854565b602082019050919050565b600060208201905081810360008301526128b98161287d565b9050919050565b7f4e6f207265776172647320746f20636c61696d00000000000000000000000000600082015250565b60006128f6601383611fda565b9150612901826128c0565b602082019050919050565b60006020820190508181036000830152612925816128e9565b9050919050565b600061293782611f9b565b915061294283611f9b565b925082820390508181111561295a57612959612366565b5b92915050565b7f4f776e61626c653a206e6577206f776e657220697320746865207a65726f206160008201527f6464726573730000000000000000000000000000000000000000000000000000602082015250565b60006129bc602683611fda565b91506129c782612960565b604082019050919050565b600060208201905081810360008301526129eb816129af565b9050919050565b7f5061757361626c653a2070617573656400000000000000000000000000000000600082015250565b6000612a28601083611fda565b9150612a33826129f2565b602082019050919050565b60006020820190508181036000830152612a5781612a1b565b9050919050565b7f45524332303a206d696e7420746f20746865207a65726f206164647265737300600082015250565b6000612a94601f83611fda565b9150612a9f82612a5e565b602082019050919050565b60006020820190508181036000830152612ac381612a87565b9050919050565b7f45524332303a20617070726f76652066726f6d20746865207a65726f2061646460008201527f7265737300000000000000000000000000000000000000000000000000000000602082015250565b6000612b26602483611fda565b9150612b3182612aca565b604082019050919050565b60006020820190508181036000830152612b5581612b19565b9050919050565b7f45524332303a20617070726f766520746f20746865207a65726f20616464726560008201527f7373000000000000000000000000000000000000000000000000000000000000602082015250565b6000612bb8602283611fda565b9150612bc382612b5c565b604082019050919050565b60006020820190508181036000830152612be781612bab565b9050919050565b7f45524332303a20696e73756666696369656e7420616c6c6f77616e6365000000600082015250565b6000612c24601d83611fda565b9150612c2f82612bee565b602082019050919050565b60006020820190508181036000830152612c5381612c17565b9050919050565b7f45524332303a207472616e736665722066726f6d20746865207a65726f20616460008201527f6472657373000000000000000000000000000000000000000000000000000000602082015250565b6000612cb6602583611fda565b9150612cc182612c5a565b604082019050919050565b60006020820190508181036000830152612ce581612ca9565b9050919050565b7f45524332303a207472616e7366657220746f20746865207a65726f206164647260008201527f6573730000000000000000000000000000000000000000000000000000000000602082015250565b6000612d48602383611fda565b9150612d5382612cec565b604082019050919050565b60006020820190508181036000830152612d7781612d3b565b9050919050565b7f45524332303a207472616e7366657220616d6f756e742065786365656473206260008201527f616c616e63650000000000000000000000000000000000000000000000000000602082015250565b6000612dda602683611fda565b9150612de582612d7e565b604082019050919050565b60006020820190508181036000830152612e0981612dcd565b9050919050565b7f4f776e61626c653a2063616c6c6572206973206e6f7420746865206f776e6572600082015250565b6000612e46602083611fda565b9150612e5182612e10565b602082019050919050565b60006020820190508181036000830152612e7581612e39565b9050919050565b7f45524332303a206275726e2066726f6d20746865207a65726f2061646472657360008201527f7300000000000000000000000000000000000000000000000000000000000000602082015250565b6000612ed8602183611fda565b9150612ee382612e7c565b604082019050919050565b60006020820190508181036000830152612f0781612ecb565b9050919050565b7f45524332303a206275726e20616d6f756e7420657863656564732062616c616e60008201527f6365000000000000000000000000000000000000000000000000000000000000602082015250565b6000612f6a602283611fda565b9150612f7582612f0e565b604082019050919050565b60006020820190508181036000830152612f9981612f5d565b9050919050565b7f5061757361626c653a206e6f7420706175736564000000000000000000000000600082015250565b6000612fd6601483611fda565b9150612fe182612fa0565b602082019050919050565b6000602082019050818103600083015261300581612fc9565b905091905056fea2646970667358221220e9a29638ba7d5931d1aff1f1eec10e2acc46c808797e73600cd9517fced6105d64736f6c634300081c0033",
  "linkReferences": {},
  "deployedLinkReferences": {}
}